{
  "contractName": "ConvertLib",
  "abi": [
    {
      "constant": true,
      "inputs": [
        {
          "name": "amount",
          "type": "uint256"
        },
        {
          "name": "conversionRate",
          "type": "uint256"
        }
      ],
      "name": "convert",
      "outputs": [
        {
          "name": "convertedAmount",
          "type": "uint256"
        }
      ],
      "payable": false,
      "stateMutability": "pure",
      "type": "function"
    }
  ],
  "bytecode": "0x60d061002f600b82828239805160001a6073146000811461001f57610021565bfe5b5030600052607381538281f30073000000000000000000000000000000000000000030146080604052600436106056576000357c0100000000000000000000000000000000000000000000000000000000900463ffffffff16806396e4ee3d14605b575b600080fd5b608160048036038101908080359060200190929190803590602001909291905050506097565b6040518082815260200191505060405180910390f35b60008183029050929150505600a165627a7a72305820e2d6315e488f6c9183ef1f91ef71479dee05001b37a67288d533884fc1a9cf370029",
  "source": "pragma solidity ^0.4.4;\n\nlibrary ConvertLib{\n\n\t//返回给定的两个无符整数值相乘的结果\n  function convert(uint amount,uint conversionRate) public pure returns (uint convertedAmount)\n\t{\n        return amount * conversionRate;\n    }\n}\n",
  "sourcePath": "/Users/oscar/develop/blockchain/Truffle/MetaCoin/contracts/ConvertLib.sol",
  "compiler": {
    "name": "solc",
    "version": "0.4.23+commit.124ca40d.Emscripten.clang"
  },
  "schemaVersion": "2.0.0",
  "updatedAt": "2018-05-20T15:45:37.041Z"
}